000002OTOMETRIS DOMINICANA          000000000000
000004RODRIGUEZ TINEO               000000041925
000005TOMAS DE LOS SANTOS           00000002600}
000008SAMUEL RAMOS                  000000009500
000015ADALGISA CASADO               000000000000
000016BONILLA Y LUGO                000000460500
000021ROSARIO                       00000000200}
000023CANDELARIA MAURICIO           000000000000
000026DR. ALFONSO BROSSA            000001994000
000030CLINICA LUIS PASTEUR          000000000000
000034MENDEZ JIMENEZ                000000050000
000036ALEYDA JOSE                   000000000000
000039MONSEÑOR PANAL                000000000000
000040CARABALLO ARIAS               000000105500
000043CUMBRE NATURAL CENTER         000000394500
000044DANNERYS                      000000070500
000047MERIDES MENDEZ                000000246500
000048SERRANO SANTANA               000000258500
000050SALIDA DEL SOL                000000000000
000055EMBAJADA AMERICANA            000000355500
000058CLINICO POPULAR               000000006000
000063GIL MEJIA                     000000339500
000064GONZALEZ MOREL                000000870450
000072SAN JUAN APOSTOL              000000827300
000076LABOCEN                       000000578000
000078LUCHY DE ELIAS                000000115000
000083M0NSERRAT GASSO               000000000000
000085CUERPO DE PAZ                 000016547900
000086JUMA                          000001599500
000088DEL ORBE                      000000524500
000090RECRUITING OFFICE             000001110500
000093VALERIO DE PICHARDO           000000680500
000094CRISTINA MORENO               000000457500
000099MONTE SINAI                   000000415000
000100CENTRO ESPECIALIDADES MEDICAS 000000261000
000102NORMA BRITO                   000000000000
000105MARCIA ROSARIO                000000392000
000107SEGURA                        000000065500
000109CARDENAL SANCHA               000000648500
000111POLANCO ALVAREZ               000000000000
000113BIO-MEC                       000000284000
000114LABOCLICIT                    000000604600
000117ESTABLO VILLA JUANA           000000213000
000124DR. ANGEL B. CONTRERAS        000000023500
000126MIR & PEREZ                   000003389900
000131LABO-MED                      000000020500
000136INTERIOR Y POLICIA (ARMAS/LIC)000000000000
000139DISPENSARIO SANTA ROSA DE LIMA000000000000
000146PORTES                        000000054000
000156ROSARIO PEROZO                000000000000
000157GARRIDO JANSEN                000000000000
000159SAN MIGUEL-ORIENTAL           000000114600
000164JUANA DE ROBLES               000000556500
000166PROFESORA CAMELIA GARCIA      00000001150}
000168CAP                           000000000000
000170VETERINARIA DRA. TANIA LORA   000000000000
000173CALDERON BOVES                000000692000
000174VASQUEZ LORENZO               000000000000
000175PLANIFICACION                 000000056500
000181MAYRA JOHNSON                 000000035000
000182VILLA FUNDACION               000000000000
000183CARMEN SANTANA                000000570000
000188CENTRO MEDICO DR. RODRIGUEZ   000000263500
000189RONDON                        000000399000
000190LOPEZ                         000000610000
000193NUESTRA SRA. DE LANTIGUA      000000381500
000196BRUNILDA SOSA                 000001249500
000198INSTITUTO DE INMUNO-ALERGIA   000000228500
000201JIMENEZ JORGE                 000000041500
000203PATRIA RIVAS                  000000000000
000207CENTRAL ROMANA                000000393500
000208MERCEDES RODRIGUEZ            000000085500
000210IRIS OGANDO                   000000931900
000212IRIS CASTILLO                 000000000000
000213GRUPO MEDICO ROMANA           000000569500
000215CENTRO MEDICO UNIDO           000000309500
000233ARELIS MOQUETE                000000530000
000234BIOCLIN                       000002240000
000235RAMIREZ DE OVIEDO             000000171000
000236DOLORES DIAZ                  000000000000
000237CRUZ HENRIQUEZ                000000141500
000238ABREU                         000000257000
000239VIDAL ESPINOSA                000000000000
000241PEREZ RIJO                    000000331240
000243SODECA                        000000005500
000247BIO-DIAGNOSTICO               000000918000
000249JENNY CASTILLO                000000000000
000255MORMONES (MISION OESTE)       000000000000
000257DIAZ FERRERA                  000000000000
000261NOLA MORETA                   000000022500
000262POZO FLORENTINO               000000040100
000263CENTRO ESP. MEDICAS TITI      000001474500
000271JICA                          000000000000
000278VETERINARIA DRA. ROSA SUAZO   000000246500
000279MARITZA BONETTI               000000000000
000280GROSS ROSADO                  00000002000}
000281ROSILAB                       000001477500
000288GRUPO MEDICO DR. GUERRERO     000000006000
000292MARIA MAGDALENA               000000409000
000305ENVIOS AL EXTERIOR            000000131447
000306INTERNATIONAL SOS ASSISTANCE  000000066000
000308CELESTINA DIAZ CARELA         000000000000
000309FARFAN                        000000000000
000312DRA. BALDONADO                000000045500
000314SANTA CLARA                   000000286820
000316PIÑA BETANCES                 000001868000
000318TESTIGOS DE JEHOVA            000003447000
000319CENTRO MEDICO MARIA DOLORES   000001774500
000321MONTERO WAGNER                000004264000
000322PEREZ SANTANA                 000000869500
000326VIRGINIA PEREZ                000000012000
000327SAN PANCRACIO                 000000432500
000329CONTRERAS                     000000261000
000330JUAN XXIII                    000000447000
000331VET BOCA SERVICIOS VETERINARIO000000195500
000332GRUPO MEDICO HIGUEYANO        000000033520
000334LUZ Y VIDA                    000002922000
000335UPIA                          000001036500
000341CENTRO DE SALUD OCUPACIONAL   000000014500
000345DR. LUIGI SBRIZ               000000622500
000350CENTRO CLINICO QUIRURGICO     000003446575
000352MARRERO CAMPUSANO             000000039500
000353ARISTY                        000000061500
000356LACMEVESA                     000000307000
000357SANTANA CEDENO                000000000000
000361NUESTRA SRA. LA ALTAGRACIA    000000000000
000366LAS MERCEDES                  000000330500
000371CLINICA DRA. GARCIA           000000421000
000374AIDA MERCEDES RECIO           000000107500
000381ROJAS                         000000000000
000387GOMEZ CRUZ                    000001676000
000388LABOCLISUR                    000000059500
000396VETERINARIA ANIMED            000000000000
000397INES LIRIANO                  000000000000
000401ISABEL PEREZ S.A.             000000451500
000402ROSA MARTINEZ                 000000007500
000403ROSYMAR                       000000014000
000408BONCY-PEREIRA                 100000567800
000411LUCHY DURAN                   000000049000
000418DRA. ARIANE MORALES           000000034500
000422XIOMARA VELOZ DE MARIÑEZ      000000000000
000423DR. CARLOS JULIO RODRIGUEZ    000000000000
000429EVELYN                        000000000000
000436SUAZO                         000000294000
000437GEORGINA ANTHONY              000000000000
000440SANTA CATALINA DE SIENA       000000774500
000448NALIC LIFE INSURANCE          000000000000
000452ROSARIO RAMIREZ               000000672500
000457EVA DE LA ROSA                000000497500
000460ANA RAMONA GARCIA             000000000000
000463LETICIA RIVERA                000000000000
000464DR. FERNANDO CONTRERAS        000000237000
000466POLICLINICO LA VEGA           000001872000
000468MARISOL FRIAS DE BONETTI      000000031000
000469LIGIA BONETTI                 000000000000
000470PETRICA LEON                  000000389500
000472SUSANA HERNANDEZ              000000167600
000473RAYSA JORGE DE NIVAR          000000921000
000477DR. LIZARDO                   000000665500
000478ADELINA JORGE DE VERD         000000069000
000480CENTRO MEDICO PUNTA CANA      000084569456
000484HOSPITAL DR. GONZALVO         000000076600
000491MANUEL TRONCOSO               000000000000
000495RAYMUNDO ACRA                 000000000000
000500VIMENCA                       000000000000
000525CRUCITA VALDEZ LORENZO        000000061500
000528PLAN SOCIAL                   000000000000
000530DEPTO. DE VISA                000000000000
000531GRUPO MEDICO LIBERTAD         000000297500
000532PILLIER CEDANO                000000000000
000535CENTRO MEDICO NIZAO           000000056000
000537LA ESPERANZA (HIGUEY)         000000096500
000538IDEV-AG1549 (INST. VIROLOGIA) 000016650000
000540TELEMED                       000000000000
000541CLINICA DR. TERRERO           000000000000
000542FAMIHEALTH                    000000071000
000545CLINICA DRES. NUÑEZ           000000017500
000546CENTRO MEDICO DR. GERMAN      000000402000
000547BANCO DE SANGRE JIREH         000000018000
000549NUESTRA SRA. DE GUADALUPE     000000228500
000550PLAN SOCIAL NORTE             000000102500
000554VETERINARIA DR. ENRIQUE ALFAU 000000000000
000556CENTRO MEDICO ANAIS           000000180000
000558DISPENSARIO MEDICO UASD       000000000000
000568PROMOSIONES                   000003668500
000573ANNIE MALLA DE ABREU          000000020000
000577CENTRO MEDICO NAZARET         000000000000
000587ALBA PINALES                  000000289000
000590AQUINO & ASOCIADOS            000000177500
000593HOSPITAL VETERINARIO ALBA     000000014000
000594RONDON PEGUERO                000000019500
000599VETERINARIA EXOTICA           000000043500
000601ARTURO ARRIAGA                000000657500
000607CENTRO MEDICO EVANGELICO      000000033500
000610MARTHA POLANCO                000000095500
000614CASC                          000000000000
000619NUESTRA SRA. DE LA PAZ        000000073500
000621SALAZAR                       000001089000
000622ALBO, CXA                     000000000000
000623GRUPO M                       000000298500
000627CLINICA SAN LUCAS             000000014500
000630DRA. NURIS DE PADUA           000000000000
000634MODESTA DE LA CRUZ            000001585080
000635DIMECI                        000000000000
000636BIO-DENTAL                    000000049000
000642DR. ROBERTO RAVELO            000000086000
000648MANUEL DIEZ Y/O JOSEFINA DIEZ 000000000000
000655INSTITUTO DE VIROLOGIA        000000489000
000656MICROTEK                      000000451454
000669GRUPO MEDICO DR. REYES        000000133500
000699CENTRO MEDICO DR. BETANCES    000000088000
000700FLORIMON                      000001515500
000707THELMA EUSEBIO                00000003900}
000709POLICLINICA DUARTE            000000279000
000711REYNA JIMENEZ                 000000000000
000712MINISTERIO CORAZON DEL SIERVO 000000308000
000714AGUSTINA ESPINAL              000000869500
000739FRANCIA PEGUERO               000000000000
000740DR. DEL ROSARIO               000000000000
000743JIMENEZ DAJER                 000000115500
000744ANTONIO Y/O ALBERTINA FRIAS   000000000000
000745MENA                          000001515500
000747PLAN CIA LAB. REFERENCIA      000000000000
000750CLINICO MARTINEZ              000000000000
000756PROYECTO GILEAD/IDEV:GS99-903 10001446153M
000762CLINICA DR. RICARDO ABREU     000000044000
000770SERVICIO AMB. VETERINARIO     000000000000
000780SERVICIOS MEDICOS ESPECIALES  000000066000
000781CARLA MOREL                   000000000000
000788DR. ROJAS GRULLON             000000638000
000791DRA. GUERRERO                 000000001500
000797CENTRO MED. DR. MERCEDES      000000025500
000798CENTRO MEDICO BIBLICO         000000004500
000803CENTRO MEDICO DR. RAMIREZ     00000005950}
000805ROSA HERNANDEZ DE GRULLON     000000115500
000807VOLUNTARIADO JESUS CON LOS NIN000000292000
000808VETERINARIA DR. BRACHE        000000288000
000819OLGA DEL CARMEN AVILA         000000043500
000838ROJAS FRANCO                  000000000000
000840CENTRO CIRUGIA FRIAS RODULFO  000000802000
000852NAZARET                       000000613000
000857LABCEH                        000000078500
000870DISPENSARIO MEDICO CARITAS    000000371000
000874ANGELAB                       000000468500
000875EUROLAB                       000000297000
000889YASMIN METZ                   000000493000
000915PROYECTO HPV-HSH:IDEV         000000000000
000916ELBA DE POLANCO               000000000000
000920SOC. DOM. EPILEPSIA           000000005500
000923FUND. SALUD DESARROLLO        000000496500
000927CARITAS ARQUIDIOCESANA STO.DGO000004926500
000937VETERINARIA LA JUNGLITA       00000000050}
000938CENTRO DR.DONASTORG           00000010400}
000946IRIP                          000000000000
000948NURIS MARTINEZ                00000000150}
000961CENTRO MEDICO VISTA DEL JARDIN000000021500
000962CRISTIAN GOMEZ MORILLO        000000296000
000963ANCUS                         000000074000
000979CLINICO BIOLA                 000000327500
001013SANTO HOGAR                   000000000000
001015PLAN SOCIAL HIGUEY            000000000000
001017CENTRO MEDICO NACIONAL SFM    000000000000
001018RAMONA LUNA RAMIREZ           000000000000
001027DR. ANGEL R. CONTRERAS        000001474200
001029CEDALAB                       000000378500
001034EMERGENCIA CLINICA ABREU      000003080453
001067EL BUEN PASTOR                000000028000
001069JEHOVA JIREH                  000000942000
001112TESIS MICROBIOLOGIA PUCAMAIMA 000002225000
001118CASTILLO PULGAR               000000080500
001122VIROLOGIA                     000000153000
001130IMCS                          000000435500
001132AMERICAN FIDELITY             000000000000
001138CENTRO CARDIO RENAL DEL CIBAO 000000000000
001140ADN                           000000030145
001141NIV 13                        000000000000
001147PROYECTO SMART                100000060000
001164CLINICO BMCA                  000000163000
001186CLINICO CHESTARO              000000000000
